:1000000019C033C032C031C030C02FC02EC02DC087
:100010002CC02BC02AC029C028C027C026C025C09C
:1000200024C023C022C021C020C01FC01EC01DC0CC
:100030001CC01BC011241FBECFEFD2E0DEBFCDBF5E
:1000400011E0A0E0B1E0E2EAF0E002C005900D921C
:10005000A030B107D9F711E0A0E0B1E001C01D92D6
:10006000A130B107E1F702D01AC0CACF8FEF84B92F
:1000700015B880E18093000191E002C090930001E7
:10008000E3E2F4EF3197F1F700C000008091000146
:10009000880F8093000185B9882381F3F1CFF8940C
:0200A000FFCF90
:00000001FF
