:1000000019C033C032C031C030C02FC02EC02DC087
:100010002CC02BC02AC029C028C027C026C025C09C
:1000200024C023C022C021C020C01FC01EC01DC0CC
:100030001CC01BC011241FBECFEFD2E0DEBFCDBF5E
:1000400011E0A0E0B1E0EEEBF0E002C005900D920F
:10005000A030B107D9F711E0A0E0B1E001C01D92D6
:10006000A030B107E1F702D028C0CACF8FEF84B922
:1000700081E085B90CC085B1880F85B98FE59AEE0E
:10008000A0E081509040A040E1F700C0000085B1A1
:10009000803889F785B18130D1F385B1869585B9EE
:1000A0008FE59AEEA0E081509040A040E1F700C0BB
:0E00B000000085B1813089F7EACFF894FFCFC8
:00000001FF
