:1000000019C033C032C031C030C02FC02EC02DC087
:100010002CC02BC02AC029C028C027C026C025C09C
:1000200024C023C022C021C020C01FC01EC01DC0CC
:100030001CC01BC011241FBECFEFD2E0DEBFCDBF5E
:1000400011E0A0E0B1E0E8E5F5E002C005900D9216
:10005000A431B107D9F711E0A4E1B1E001C01D92CC
:10006000AA31B107E1F7BCD075C2CACF5A989AB18C
:10007000906F9AB99BB1807F9F70982B9BB900C0FD
:100080005B9A00C05B980895882311F4599801C0C9
:10009000599A5A9A8AB18F708AB900C05B9A00C087
:1000A00089B15B9800C05B9A00C099B15B985A987F
:1000B00092959F70807F892B0895CF93DF93C82FEF
:1000C000D62F80E0E1DF8038E1F3DD2311F4599889
:1000D00001C0599A8DE08A95F1F700008C2FC6DF98
:1000E0008C2F8295807FC2DFDF91CF910895539A44
:1000F000519A529A5B9859985A988AB1806F8AB9E6
:1001000081EF9BE20197F1F700C0000080E3AEDFD2
:1001100081EE94E00197F1F700C0000080E3A6DFD4
:1001200089EF90E00197F1F700C0000080E39EDFC7
:1001300089EF90E00197F1F700C0000080E296DFC0
:1001400089EF90E00197F1F700C0000080E28EDFB8
:1001500080EC8CDF8CE060E0B0DF81E060E0ADDF60
:1001600086E060E0AADF81EE94E00197F1F700C03D
:1001700000000895CF93DF93EC018881882331F04C
:10018000219661E09ADF89918823D9F7DF91CF9199
:100190000895662311F490E801C090EC890F60E0A7
:1001A0008CDF089581E060E088DF089580E480932B
:1001B0007C0080E880937A000895ECE7F0E090817D
:1001C000907F892B8083EAE7F0E0808180648083E0
:1001D000808184FFFDCF809178009091790008950F
:1001E00083E084B9E3DF83DF83E060E0D2DF80E097
:1001F00091E0C0DF06E111E0C1E0D2E00F2EFCE0AB
:10020000EF2EF1E0FF2EF02D85E0D7DF9C01B90144
:10021000882777FD8095982FCED021ED32E243E0FC
:1002200050E42ED095D0DC01CB0190931501809342
:100230001401B8014AE050E04AD180911401909134
:1002400015018A31910514F0D5B906C085319105A3
:1002500014F4C5B901C015B885E06C2F9ADFC70149
:1002600089DF85E06C2F95DFC80184DF8FE798E395
:10027000A1E081509040A040E1F700C00000C4CF51
:100280000CD0EBC0E3D040F0DAD030F021F45F3F87
:1002900019F0CCC0511115C1CFC0F0D098F39923FB
:1002A000C9F35523B1F3951B550BBB27AA2762173A
:1002B0007307840738F09F5F5F4F220F331F441F7F
:1002C000AA1FA9F333D00E2E3AF0E0E830D09150B7
:1002D0005040E695001CCAF729D0FE2F27D0660FA4
:1002E000771F881FBB1F261737074807AB07B0E8E3
:1002F00009F0BB0B802DBF01FF2793585F4F2AF0F9
:100300009E3F510568F092C0DCC05F3FECF3983E21
:10031000DCF3869577956795B795F7959F5FC9F755
:10032000880F911D9695879597F90895E1E0660FDE
:10033000771F881FBB1F621773078407BA0720F057
:10034000621B730B840BBA0BEE1F88F7E0950895C0
:1003500004D06894B111B5C0089598D088F09F5723
:1003600090F0B92F9927B751A0F0D1F0660F771F01
:10037000881F991F1AF0BA95C9F712C0B13081F0E1
:100380009FD0B1E008959CC0672F782F8827B85F71
:1003900039F0B93FCCF3869577956795B395D9F742
:1003A0003EF490958095709561957F4F8F4F9F4F4C
:1003B0000895E89409C097FB3EF490958095709558
:1003C00061957F4F8F4F9F4F9923A9F0F92F96E9A1
:1003D000BB279395F695879577956795B795F11116
:1003E000F8CFFAF4BB0F11F460FF1BC06F5F7F4FB3
:1003F0008F4F9F4F16C0882311F096E911C07723C5
:1004000021F09EE8872F762F05C0662371F096E8CD
:10041000862F70E060E02AF09A95660F771F881F9C
:10042000DAF7880F9695879597F9089597F99F675A
:1004300080E870E060E008959FEF80EC089500246C
:100440000A941616170618060906089500240A9439
:1004500012161306140605060895092E0394000CBF
:1004600011F4882352F0BB0F40F4BF2B11F460FF4E
:1004700004C06F5F7F4F8F4F9F4F089557FD905877
:10048000440F551F59F05F3F71F04795880F97FB58
:10049000991F61F09F3F79F0879508951216130612
:1004A0001406551FF2CF4695F1DF08C01616170641
:1004B0001806991FF1CF8695710561050894089576
:1004C000E894BB2766277727CB0197F90895FB01AE
:1004D0009F01E8944230BCF04532ACF44A3029F434
:1004E00097FB1EF4909581959F4F642F77271ED020
:1004F000805D8A330CF0895D8193CB010097A9F769
:1005000016F45DE251931082C90100C0DC01FC01C8
:10051000672F71917723E1F7329704C07C916D9337
:1005200070836291AE17BF07C8F30895AA1BBB1B67
:1005300051E107C0AA1FBB1FA617B70710F0A61BE3
:10054000B70B881F991F5A95A9F780959095BC0104
:08055000CD010895F894FFCFDE
:1005580054454D50455241545552410020202020C9
:04056800202020002F
:00000001FF
