:1000000019C033C032C031C030C02FC02EC02DC087
:100010002CC02BC02AC029C028C027C026C025C09C
:1000200024C023C022C021C020C01FC01EC01DC0CC
:100030001CC01BC011241FBECFEFD2E0DEBFCDBF5E
:1000400011E0A0E0B1E0EAEAF0E002C005900D9214
:10005000AA30B107D9F711E0AAE0B1E001C01D92C2
:10006000AB30B107E1F702D01EC0CACF8FEF84B921
:1000700080E091E010920A0120E0FC01E20FF11D06
:10008000208125B92FE33DE043E02150304040403E
:10009000E1F700C0000020910A012F5F20930A01C0
:0A00A0002A3058F3E7CFF894FFCFA1
:0A00AA003F065B4F666D7D077F6720
:00000001FF
