:1000000019C033C032C031C030C02FC02EC02DC087
:100010002CC02BC02AC029C028C027C026C025C09C
:1000200024C023C022C021C020C01FC01EC01DC0CC
:100030001CC01BC011241FBECFEFD2E0DEBFCDBF5E
:1000400011E0A0E0B1E0E6ECF0E002C005900D9216
:10005000AC30B107D9F711E0ACE0B1E001C01D92BE
:10006000AD30B107E1F702D02CC0CACF8FEF84B911
:1000700015B881E091E031E020910C01FC01E20F24
:10008000F11D208125B920910001222351F42091F6
:100090000C01215020930C01222361F430930001C4
:1000A00009C020910C012F5F20930C01293011F41D
:1000B00010920001EBE7F2E93197F1F700C0000080
:0600C000DBCFF894FFCF36
:0C00C600013F065B4F666D7D077F670001
:00000001FF
