:1000000019C033C032C031C030C02FC02EC02DC087
:100010002CC02BC02AC029C028C027C026C025C09C
:1000200024C023C022C021C020C01FC01EC01DC0CC
:100030001CC01BC011241FBECFEFD2E0DEBFCDBF5E
:1000400011E0A0E0B1E0E6E3F1E002C005900D921E
:10005000A030B107D9F711E0A0E0B1E001C01D92D6
:10006000A230B107E1F71CD064C0CACF80E480930E
:100070007C0080E880937A000895ECE7F0E09081BE
:10008000907F892B8083EAE7F0E080818064808321
:10009000808184FFFDCF8091780090917900089550
:1000A000E5DF8FEF84B9CC24CA940F2EFFE7DF2E53
:1000B000F02D0F2EFFE3EF2EF02D0F2EFFE1FF2E80
:1000C000F02D0FE017E0D3E0C1E082E0D6DF90939F
:1000D0000101809300018930910514F4C5B922C053
:1000E0008231910514F4D5B91DC08B31910514F4FA
:1000F00015B918C08432910514F405B913C08D32B6
:10010000910514F4F5B80EC08633910514F4E5B8E2
:1001100009C08F33910514F4D5B804C08634910515
:100120000CF4C5B88DE292E20197F1F700C000002F
:06013000CCCFF894FFCFD4
:00000001FF
