:1000000019C033C032C031C030C02FC02EC02DC087
:100010002CC02BC02AC029C028C01BC126C025C0A7
:1000200024C023C022C021C020C01FC01EC01DC0CC
:100030001CC01BC011241FBECFEFD2E0DEBFCDBF5E
:1000400011E0A0E0B1E0E2E2F4E002C005900D9220
:10005000A631B107D9F711E0A6E1B1E001C01D92C8
:10006000AF31B107E1F7A2D0DAC1CACF5A989AB13D
:10007000906F9AB99BB1807F9F70982B9BB900C0FD
:100080005B9A00C05B980895882311F4599801C0C9
:10009000599A5A9A8AB18F708AB900C05B9A00C087
:1000A00089B15B9800C05B9A00C099B15B985A987F
:1000B00092959F70807F892B0895CF93DF93C82FEF
:1000C000D62F80E0E1DF8038E1F3DD2311F4599889
:1000D00001C0599A8DE08A95F1F700008C2FC6DF98
:1000E0008C2F8295807FC2DFDF91CF910895539A44
:1000F000519A529A5B9859985A988AB1806F8AB9E6
:1001000081EF9BE20197F1F700C0000080E3AEDFD2
:1001100081EE94E00197F1F700C0000080E3A6DFD4
:1001200089EF90E00197F1F700C0000080E39EDFC7
:1001300089EF90E00197F1F700C0000080E296DFC0
:1001400089EF90E00197F1F700C0000080E28EDFB8
:1001500080EC8CDF8CE060E0B0DF81E060E0ADDF60
:1001600086E060E0AADF81EE94E00197F1F700C03D
:1001700000000895CF93DF93EC018881882331F04C
:10018000219661E09ADF89918823D9F7DF91CF9199
:100190000895662311F490E801C090EC890F60E0A7
:1001A0008CDF089581E060E088DF08958FEF84B9E7
:1001B0001092800086EF92EC9093850080938400EB
:1001C00081E080936F0083E08093810090DF84E082
:1001D00060E0DFDF80E091E0CDDFCCE1D1E0809135
:1001E000140190911501BE014AE050E0D5D009E11B
:1001F00011E08091120190911301B8014AE050E0A2
:10020000CBD00F2EF6E1EF2EF1E0FF2EF02D8091F6
:10021000100190911101B7014AE050E0BDD085E096
:1002200061E0B7DFCE01A6DFCCE0D1E0CE01A2DFF6
:10023000C801A0DFCE019EDFC7019CDF789485B1A5
:10024000809585B98FE493EC0197F1F700C0000029
:10025000F6CF1F920F920FB60F9211242F933F9358
:100260004F935F936F937F938F939F93AF93BF93BE
:10027000EF93FF9386EF92EC909385008093840038
:10028000809110019091110101969093110180933A
:1002900010018C33910521F510921101109210017B
:1002A0008091120190911301019690931301809314
:1002B00012018C339105A1F41092130110921201D6
:1002C00080911401909115010196909315018093EE
:1002D00014018831910521F4109215011092140136
:1002E00080911401909115016CE171E04AE050E0B9
:1002F00053D0809112019091130169E171E04AE0BD
:1003000050E04AD0809110019091110166E171E0B6
:100310004AE050E041D085E061E03BDF809114018C
:10032000909115018A3091051CF48EE091E022DF56
:100330008CE191E01FDF8CE091E01CDF80911201E5
:10034000909113018A3091051CF48EE091E012DF48
:1003500089E191E00FDF8CE091E00CDF80911001EA
:10036000909111018A3091051CF48EE091E002DF3A
:1003700086E191E0FFDEFF91EF91BF91AF919F91F8
:100380008F917F916F915F914F913F912F910F903E
:100390000FBE0F901F901895FB019F01E89442300B
:1003A000BCF04532ACF44A3029F497FB1EF490952A
:1003B00081959F4F642F77271ED0805D8A330CF084
:1003C000895D8193CB010097A9F716F45DE2519303
:1003D0001082C90100C0DC01FC01672F71917723F5
:1003E000E1F7329704C07C916D9370836291AE17F0
:1003F000BF07C8F30895AA1BBB1B51E107C0AA1F82
:10040000BB1FA617B70710F0A61BB70B881F991FB5
:100410005A95A9F780959095BC01CD010895F8945F
:02042000FFCF0C
:100422004C4120484F52412045533A003A00300097
:0604320032000B000E0079
:00000001FF
