S0100000456A656D706C6F352E7372656313
S113000019C033C032C031C030C02FC02EC02DC083
S11300102CC02BC02AC029C028C027C026C025C098
S113002024C023C022C021C020C01FC01EC01DC0C8
S11300301CC01BC011241FBECFEFD2E0DEBFCDBF5A
S113004011E0A0E0B1E0EAEFF0E002C005900D920B
S1130050A032B107D9F711E0A0E2B1E001C01D92CE
S1130060A432B107E1F702D046C0CACF8FEF84B9FA
S11300708AB980E091E040E81092230110922201B5
S11300804BB91092210120E0E0912001F0E0EE0F45
S1130090FF1FEE0FFF1FEE0FFF1FE20FF11DE80F12
S11300A0F91F2081209525B9E9EFF0E03197F1F7A8
S11300B000C000002BB126952BB9209121012F5FA0
S11300C020932101283000F3209122013091230153
S11300D02F5F3F4F3093230120932201283C3105A9
S11300E078F2209120012F5F20932001243021F603
S10D00F010922001C1CFF894FFCF55
S11300FAFFFFDBDBDBDBDB81F8FC06030306FCF832
S113010AFFFFDBDBDBDBDB8100CCCC3333CCCC0085
S9030000FC
