:1000000019C033C032C031C030C02FC02EC02DC087
:100010002CC02BC02AC029C028C027C026C025C09C
:1000200024C023C022C021C020C01FC01EC01DC0CC
:100030001CC01BC011241FBECFEFD2E0DEBFCDBF5E
:1000400011E0A0E0B1E0EAE9F0E002C005900D9215
:10005000A030B107D9F711E0A0E0B1E001C01D92D6
:10006000A030B107E1F702D016C0CACF8FEF84B934
:100070001AB815B881E08BB989B18F3F11F08BB1F7
:1000800085B98FE493EC0197F1F700C0000085B1CA
:0A009000880F85B9F1CFF894FFCF77
:00000001FF
