:1000000019C033C032C031C030C02FC02EC02DC087
:100010002CC02BC02AC029C028C027C026C025C09C
:1000200024C023C022C021C020C01FC01EC01DC0CC
:100030001CC01BC011241FBECFEFD2E0DEBFCDBF5E
:1000400011E0A0E0B1E0EAE6F1E002C005900D9217
:10005000AE32B107D9F711E0AEE2B1E001C01D92B6
:10006000AC33B107E1F702D07EC0CACF8FEF84B9BD
:100070008AB980E88BB90F2EF1E3CF2EF1E0DF2EA5
:10008000F02D07E311E00F2EF0E0EF2EF1E0FF2E50
:10009000F02D78E020E331E060E840912F0150E05E
:1000A000C0913901D0E0D60180E014C0873091F4CE
:1000B000CA01880F991F880F991F880F991F840FF5
:1000C000951F8C0F9D1FF701E80FF91F8081F80124
:1000D000808308C09C91FD01319790838F5F1196BA
:1000E000883021F770932E0110923B0110923A0153
:1000F0001092380180E0F901E80FF11D80818095B0
:1001000085B989EF90E00197F1F700C000008BB14D
:1001100086958BB9809138018F5F80933801883044
:1001200050F36BB980913A0190913B010196909305
:100130003B0180933A018F309105D0F280913901D3
:100140008F5F80933901893009F0A7CF1092390170
:1001500080912F018F5F80932F01853009F09DCF13
:0A01600010922F019ACFF894FFCF00
:10016A0000FFFFFF1818FFFFFF00FFFFFFE7E7FF91
:10017A00FFFF00FFFFFF030303030300FFFFFFC4AA
:0E018A00C4FFFFFF00000000000000000000A6
:00000001FF
