S0120000456A656D706C6F352E312E73726563B2
S113000019C033C032C031C030C02FC02EC02DC083
S11300102CC02BC02AC029C028C027C026C025C098
S113002024C023C022C021C020C01FC01EC01DC0C8
S11300301CC01BC011241FBECFEFD2E0DEBFCDBF5A
S113004011E0A0E0B1E0E4EDF1E002C005900D9212
S1130050A834B107D9F711E0A8E4B1E001C01D92BA
S1130060A435B107E1F702D0B3C0CACF8FEF84B98A
S11300708AB980E88BB90F2EFAE4AF2EF1E0BF2ED7
S1130080F02D0F2EF0E5EF2EF1E0FF2EF02D0F2EC8
S1130090F0E3CF2EF1E0DF2EF02D29E431E060E82B
S11300A040E051E0C0915101D0E00091520110E0D4
S11300B0D50180E012C0873081F4CE01880F991FEA
S11300C0880F991F880F991F800F911F8C0D9D1DFC
S11300D0FC018081F701808308C09C91FD01319768
S11300E090838F5F1196883031F7109253011092EC
S11300F0480180E0F901E80FF11D8081809585B900
S113010089EF90E00197F1F700C000008BB186956C
S11301108BB9809148018F5F80934801883050F3F8
S11301206BB9809153018F5F809353018A30F8F249
S1130130809152018F5F80935201883009F0B2CFD1
S113014010925201809151018F5F8093510183304D
S113015009F0A8CF10925101109253011092480156
S113016070E08091510190E0880F991F880F991FCA
S1130170880F991F870F911D840F951FFC018081A3
S1130180809585B983EF91E00197F1F700C00000F5
S11301908BB186958BB970914801F901E70FF11D78
S11301A010827F5F709348017830D8F26BB98091E8
S11301B053018F5F80935301803180F2809151010C
S11301C08F5F80935101863038F2109251016ACFCB
S10701D0F894FFCFCD
S11301D4FFFFDBDBDBDBDB81000000000000000051
S11301E4F8FC06030306FCF800000000000000000D
S11301F4FFFFDBDBDBDBDB81000000000000000031
S11302040000FF7E3C1800000000183C7EFF000044
S10B02140000000000000000DE
S9030000FC
