S0100000456A656D706C6F332E7372656315
S113000019C033C032C031C030C02FC02EC02DC083
S11300102CC02BC02AC029C028C027C026C025C098
S113002024C023C022C021C020C01FC01EC01DC0C8
S11300301CC01BC011241FBECFEFD2E0DEBFCDBF5A
S113004011E0A0E0B1E0EAECF0E002C005900D920E
S1130050AA30B107D9F711E0AAE0B1E001C01D92BE
S1130060AC30B107E1F702D02EC0CACF8FEF84B90C
S11300708AB980E091E020910B01FC01E20FF11DAF
S1130080308135B930910A01FC01E30FF11D308153
S11300903BB94FE956E861E0415050406040E1F718
S11300A000C000002F5F20930B012A3021F710922B
S11300B00B0120910A012F5F20930A012A30D9F6FF
S10D00C010920A01D8CFF894FFCF84
S10D00CA3F065B4F666D7D077F67FC
S9030000FC
