:1000000019C033C032C031C030C02FC02EC02DC087
:100010002CC02BC02AC029C028C027C026C025C09C
:1000200024C023C022C021C020C01FC01EC01DC0CC
:100030001CC01BC011241FBECFEFD2E0DEBFCDBF5E
:1000400011E0A0E0B1E0ECE3F1E002C005900D9218
:10005000A030B107D9F711E0A0E0B1E001C01D92D6
:10006000A230B107E1F71CD067C0CACF80E480930B
:100070007C0080E880937A000895ECE7F0E09081BE
:10008000907F892B8083EAE7F0E080818064808321
:10009000808184FFFDCF8091780090917900089550
:1000A000E5DF8FEF84B9DD24DA940F2EFFE7CF2E42
:1000B000F02D0F2EFFE3EF2EF02D0F2EFFE1FF2E80
:1000C000F02D0FE017E0D3E0C1E082E0D6DF90939F
:1000D0000101809300018038910514F4C5B925C051
:1000E0008F3F910509F014F4D5B91FC021E0803885
:1000F000920714F415B919C022E08030920714F465
:1001000005B913C022E08038920714F4F5B80DC089
:1001100023E08030920714F4E5B807C023E0853669
:10012000920714F4C5B801C0D5B88DE292E20197E8
:0C013000F1F700C00000C9CFF894FFCF29
:00000001FF
