S01B0000456A656D706C6F3728656E74726164617332292E7372656331
S113000019C033C032C031C030C02FC02EC02DC083
S11300102CC02BC02AC029C028C027C026C025C098
S113002024C023C022C021C020C01FC01EC01DC0C8
S11300301CC01BC011241FBECFEFD2E0DEBFCDBF5A
S113004011E0A0E0B1E0ECE8F0E002C005900D9210
S1130050AA30B107D9F711E0AAE0B1E001C01D92BE
S1130060AB30B107E1F702D00FC0CACF8FEF84B92C
S11300701AB88BB980910A01E0E0F1E0E80FF11DB4
S10F0080808185B989B1FECFF894FFCFD0
S10D008C3F065B4F666D7D077F673A
S9030000FC
